:1008CD0020290857454C434F4D45204C594D424525
:1008DD0044474520524F424F544943532020202036
:0C08ED002020202020202020202020009F
:070924001209677F327E001B
:10092B00E4FDFCC3ED9FEC9E5015E4FBFA0BBB0002
:0F093B00010AEB640A4A70F50DBD00010C80E45F
:01094A00228A
:100967008FA0C2B5C2B7D2B6120927C2B602092BE9
:05094B0012092B7F30B2
:100950008FA0D2B5C2B7D2B67FF47E0112092BC2E6
:07096000B67F321E02092BD5
:10088C00E4F5A075B0037F05FE12094B7F947E1131
:10089C0012094B7F2C7E0112094B7F8A7E021209B2
:1008AC002B7F381209247F0F1209247F011209248F
:1008BC007F061209247F8F1209677F327E0002099E
:0108CC002B00
:1008FA0012088C900000AF8274082FF8E6FF601986
:10090A001209507FC87E0012092B7F181209677FCF
:09091A00587E0212092BA380DDB6
:0109230022B1
:03000000020800F3
:0C080000787FE4F6D8FD758130020847CF
:10080C000208FAE493A3F8E493A34003F68001F200
:10081C0008DFF48029E493A3F85407240CC8C333ED
:10082C00C4540F4420C8834004F456800146F6DFBC
:10083C00E4800B01020408102040809008CDE47E77
:10084C00019360BCA3FF543F30E509541FFEE493B1
:10085C00A360010ECF54C025E060A840B8E493A378
:10086C00FAE493A3F8E493A3C8C582C8CAC583CAA3
:10087C00F0A3C8C582C8CAC583CADFE9DEE780BE5B
:0108F90000FE
:00000001FF
